:100000000C9462000C948A000C948A000C948A0070
:100010000C948A000C948A000C948A000C948A0038
:100020000C948A000C948A000C948A000C948A0028
:100030000C948A000C948A000C948A000C948A0018
:100040000C94A7030C948A000C9405020C94C30032
:100050000C948A000C948A000C948A000C948A00F8
:100060000C94F1030C948A00000000002400270087
:100070002A0000000000250028002B0000000000DE
:1000800023002600290004040404040404040202DA
:100090000202020203030303030301020408102007
:1000A0004080010204081020010204081020000012
:1000B0000008000201000003040700000000000027
:1000C0000000130C11241FBECFEFD8E0DEBFCDBF60
:1000D00011E0A0E0B1E0EAE5FEE102C005900D927A
:1000E000AA32B107D9F722E0AAE2B1E001C01D921D
:1000F000AA39B207E1F710E0C2E6D0E004C02197C8
:10010000FE010E94200FC136D107C9F70E94BD052C
:100110000C942B0F0C940000CF92DF92EF92FF9281
:100120000F931F93CF93DF936C017A018B01C0E093
:10013000D0E0CE15DF0589F0D8016D918D01D60193
:10014000ED91FC910190F081E02DC6010995892B7C
:1001500011F47E0102C02196ECCFC701DF91CF914F
:100160001F910F91FF90EF90DF90CF90089581EF56
:1001700091E00E941A0121E0892B09F420E0822FEE
:1001800008950E94260F1F920F920FB60F9211240E
:100190002F933F934F935F936F937F938F939F938F
:1001A000AF93BF93EF93FF9381EF91E00E943702EB
:1001B000FF91EF91BF91AF919F918F917F916F913F
:1001C0005F914F913F912F910F900FBE0F901F9015
:1001D0001895FC01538D448D252F30E0842F90E03D
:1001E000821B930B541710F0CF9608950197089532
:1001F000FC01918D828D981761F0828DDF01A80F2F
:10020000B11D5D968C91928D9F5F9F73928F90E050
:1002100008958FEF9FEF0895FC01918D828D9817BF
:1002200031F0828DE80FF11D858D90E008958FEFFC
:100230009FEF0895FC01918D228D892F90E0805CC5
:100240009F4F821B91098F739927089580E090E05A
:10025000892B29F00E94B70081110C9400000895A9
:10026000833081F028F4813099F08230A1F0089534
:100270008730A9F08830B9F08430D1F480918000C3
:100280008F7D03C0809180008F77809380000895D8
:1002900084B58F7702C084B58F7D84BD0895809129
:1002A000B0008F7703C08091B0008F7D8093B00045
:1002B00008953FB7F8948091A4019091A501A09171
:1002C000A601B091A70126B5A89B05C02F3F19F044
:1002D0000196A11DB11D3FBFBA2FA92F982F8827C6
:1002E000820F911DA11DB11DBC01CD0142E0660F21
:1002F000771F881F991F4A95D1F7089585ED809340
:10030000BC008091BC0084FDFCCF1092CE0108950A
:1003100040917E01262F30E0240F311D213231051E
:10032000DCF42091CE012430C9F4FC0180E090E09F
:10033000861758F430917E012191DC01A45ABE4FFA
:10034000A30FB11D2C930196F3CF80917E01680F0E
:1003500060937E0180E0089581E0089582E0089531
:100360000895E091D0018091CF01E81730F4F0E0DA
:10037000EF52FE4F808190E008958FEF9FEF089538
:100380009091D0018091CF01981750F4E92FF0E0BF
:10039000EF52FE4F208130E09F5F9093D00102C06A
:1003A0002FEF3FEFC90108958091CF0190E0209198
:1003B000D001821B91090895CF93DF9300D0CDB770
:1003C000DEB7CB01642F49835A830E94880149819B
:1003D000842F5A81952F0F900F90DF91CF91089520
:1003E000CF93DF931F92CDB7DEB7698361E0CE0173
:1003F00001960E94880181E090E00F90DF91CF91FB
:100400000895089580E090E008951F920F920FB62E
:100410000F9211242F938F939F93EF93FF93E0916B
:100420000102F09102028081E0910702F09108023E
:1004300082FD12C0908180910A028F5F8F7320919C
:100440000B02821751F0E0910A02F0E0EF50FE4FEC
:10045000958F80930A0201C08081FF91EF919F9157
:100460008F912F910F900FBE0F901F901895FC0148
:10047000848DDF01A80FB11DA35ABF4F2C91848D2D
:1004800090E001968F739927848FA689B7892C9362
:10049000A089B1898C9180648C93938D848D9813FD
:1004A00006C00288F389E02D80818F7D80830895C6
:1004B000EF92FF920F931F93CF93DF93EC0181E0B4
:1004C000888F9B8D8C8D981305C0E889F989808170
:1004D00085FD24C0F62E0B8D10E00F5F1F4F0F73AC
:1004E0001127E02E8C8DE8120CC00FB607FCFACF56
:1004F000E889F989808185FFF5CFCE010E94370216
:10050000F1CF8B8DFE01E80FF11DE35AFF4FF08212
:100510000B8FEA89FB898081806207C0EE89FF89A1
:100520006083E889F98980818064808381E090E03C
:10053000DF91CF911F910F91FF90EF900895CF938E
:10054000DF93EC01888D8823C9F0EA89FB898081DB
:1005500085FD05C0A889B9898C9186FD0FC00FB6AD
:1005600007FCF5CF808185FFF2CFA889B9898C91EE
:1005700085FFEDCFCE010E943702E7CFDF91CF910B
:100580000895CF93DF93282F30E0F901E255FF4F14
:100590008491F901E656FF4FD491F901EA57FF4FD4
:1005A000C491CC2391F081110E943001EC2FF0E036
:1005B000EE0FFF1FE458FF4FA591B491EC91ED238E
:1005C00081E090E021F480E002C080E090E0DF91E3
:1005D000CF9108951F93CF93DF93282F30E0F90137
:1005E000E255FF4F8491F901E656FF4FD491F9018E
:1005F000EA57FF4FC491CC23C9F0162F81110E94F6
:100600003001EC2FF0E0EE0FFF1FEE58FF4FA591E9
:10061000B4918FB7F894111105C09C91ED2FE0951E
:10062000E92302C0EC91ED2BEC938FBFDF91CF91CA
:100630001F910895CF93DF9390E0FC01E656FF4FA2
:100640002491FC01EA57FF4F8491882361F190E0E7
:10065000880F991FFC01E859FF4FC591D491FC0107
:10066000EE58FF4FA591B491611109C09FB7F8945E
:100670008881209582238883EC912E230BC06230E1
:1006800061F49FB7F8943881822F80958323888303
:10069000EC912E2B2C939FBF06C08FB7F894E88166
:1006A0002E2B28838FBFDF91CF9108958E3008F0D5
:1006B0008E508770806480937C0080917A00806483
:1006C00080937A0080917A0086FDFCCF809178003B
:1006D0002091790090E0922B08958F929F92AF9293
:1006E000BF92CF92DF92EF92FF926B017C010E944A
:1006F00059014B015C01C114D104E104F104F1F092
:100700000E945901DC01CB0188199909AA09BB098A
:10071000883E9340A105B10570F321E0C21AD108CB
:10072000E108F10888EE880E83E0981EA11CB11C38
:10073000C114D104E104F10419F7DDCFFF90EF906B
:10074000DF90CF90BF90AF909F908F9008951F92B1
:100750000F920FB60F9211242F933F938F939F9375
:10076000AF93BF9380912D0190912E01A0912F0105
:10077000B09130013091A30123E0230F2D3720F4F5
:100780000196A11DB11D05C026E8230F0296A11DEB
:10079000B11D2093A30180932D0190932E01A0936E
:1007A0002F01B09330018091A4019091A501A091F7
:1007B000A601B091A7010196A11DB11D8093A401CE
:1007C0009093A501A093A601B093A701BF91AF910B
:1007D0009F918F913F912F910F900FBE0F901F907F
:1007E00018951F920F920FB60F9211242F933F93DB
:1007F0004F935F936F937F938F939F93AF93BF9329
:10080000EF93FF938091B900887F803609F49CC0F4
:1008100068F5883209F45BC090F4803109F454C063
:1008200038F4882309F4F6C0883009F44DC0F6C0C6
:10083000883109F44CC0803209F45DC0EFC08034C7
:1008400009F468C048F4803309F455C0883309F0CE
:10085000E5C08093CC01D8C0803509F44FC08835FD
:1008600009F45DC0883409F0D9C0D6C0883909F4CC
:10087000C7C0A8F4883709F467C038F4883609F48B
:1008800063C0803709F460C0C9C0883809F4B8C0B3
:10089000803909F45FC0803809F0C0C05BC0803B7C
:1008A00009F486C038F4803A09F466C0883A09F43D
:1008B0007FC0B4C0803C09F4A7C0883C09F4A4C040
:1008C000883B09F48AC0AAC08091C90110C09091E8
:1008D000CB018091CA01981770F5E091CB0181E0BE
:1008E0008E0F8093CB01F0E0E855FE4F808180931E
:1008F000BB0085EC86C08093CC018EC0E091CB011B
:1009000081E08E0F8093CB018091BB00F0E0E85531
:10091000FE4F80839091CB018091CA016EC0E0911F
:10092000CB0181E08E0F8093CB018091BB00F0E082
:10093000E855FE4F80838091CD0181116DC081E02B
:100940008093C80184EA61C083E08093CE01109255
:10095000A201CFCF8091A201803208F051C0E09176
:10096000A20181E08E0F8093A2018091BB00F0E094
:10097000EE57FE4F8083BDCF85EC8093BC00109274
:10098000CE018091A201803230F4E091A201F0E02A
:10099000EE57FE4F10826091A20170E0E09180015D
:1009A000F091810182E891E009951092A20136C090
:1009B00084E08093CE0110927F0110927E01E0913D
:1009C0007C01F0917D01099580917E01811105C026
:1009D00081E080937E0110925C01E0917F0181E0D3
:1009E0008E0F80937F01F0E0E45AFE4F8081809368
:1009F000BB0090917F0180917E01981708F479CF18
:100A000085E88093BC000AC085EC8093BC001092FE
:100A1000CE0104C01092CC010E947E01FF91EF91A3
:100A2000BF91AF919F918F917F916F915F914F9106
:100A30003F912F910F900FBE0F901F901895AF927E
:100A4000BF92CF92DF92EF92FF920F931F93CF93BB
:100A5000DF93EC016B015A0180912C01882369F12D
:100A60008B01000F111F000F111F055011097A0192
:100A7000EE0CFF1CEE0CFF1C85E0E81AF108209735
:100A8000E1F061E08DE00E94EA0282E0C816D10444
:100A900018F0C8010197F1F761E08DE00E941A0398
:100AA00060E08DE00E94EA0282E0A816B10418F02E
:100AB000C7010197F1F72197E2CFDF91CF911F9105
:100AC0000F91FF90EF90DF90CF90BF90AF9008957F
:100AD00044E650E06AE570E080E991E00C941F057F
:100AE000682F81EF91E00C9458029091CE01911102
:100AF000FCCF91E09093CE019093CD012FEF209306
:100B0000CC011092CB011092CA019093C90190912F
:100B1000C901880F892B8093C9018091C801813058
:100B200061F41092C8018091C9018093BB0080914B
:100B3000BC0083FDF8CF85EC01C085EE8093BC003E
:100B40008091CE018130E1F38091CB01811103C00E
:100B50008091CB0101C081E0A8EAB1E021ED31E054
:100B6000F9019E2F921B981718F49D919193F9CF3C
:100B70001092D0018093CF010895CF93DF9300D0DE
:100B800000D000D0CDB7DEB7789484B5826084BD44
:100B900084B5816084BD85B5826085BD85B5816081
:100BA00085BD80916E00816080936E0010928100FF
:100BB00080918100826080938100809181008160BA
:100BC000809381008091800081608093800080917B
:100BD000B10084608093B1008091B0008160809307
:100BE000B00080917A00846080937A0080917A00CE
:100BF000826080937A0080917A00816080937A008D
:100C000080917A00806880937A001092C1001092DF
:100C1000D0011092CF0110922B0110922A01109254
:100C2000CE0181E08093CD011092C80161E082E1A4
:100C30000E94EA0261E083E10E94EA028091B90029
:100C40008E7F8093B9008091B9008D7F8093B90029
:100C500088E48093B80085E48093BC00E0910102B1
:100C6000F091020282E08083E091FD01F091FE01AB
:100C70001082E091FF01F091000280E180831092E8
:100C80000902E0910502F091060286E08083E0917E
:100C90000302F0910402808180618083E09103026D
:100CA000F0910402808188608083E0910302F091DA
:100CB0000402808180688083E0910302F091040245
:100CC00080818F7D808362E084E00E941A0362E06D
:100CD00085E00E941A0362E086E00E941A0362E047
:100CE00087E00E941A0362E088E00E941A0362E033
:100CF00089E00E941A0362E08AE00E941A0362E01F
:100D00008BE00E941A0362E082E00E941A0362E014
:100D100083E00E941A0361E08CE00E941A03609154
:100D200004018CE00E94EA0261E08DE00E941A0357
:100D300060E08EE00E941A0360E080E10E941A03E6
:100D400080E090E00E944C0C91E0811101C090E0A5
:100D500090932C0148EC50E064E670E08CE291E066
:100D60000E941F0564E670E080E090E00E946D0341
:100D700048EC50E064E670E084EF91E00E941F05CB
:100D800064E670E080E090E00E946D0311E0EDE326
:100D90004E2EEAE05E2EE7E86E2EE0E47E2EF2E0D4
:100DA000EF2EF12C80E10E9456036C01BC01990FDB
:100DB000880B990B0E94950D20E030E0A9010E945C
:100DC000E60C40913A0150913B0120913201309163
:100DD0003301FA01EE0FFF1FEC5CFE4FD182C0829F
:100DE0002F5F3F4F882391F1233331052CF430934B
:100DF0003301209332010AC0109233011092320164
:100E00004F5F5F4F50933B0140933A0180913A010D
:100E100090913B0103970CF44CC020913401309128
:100E200035018091360190913701820F931F2091F7
:100E3000380130913901820F931F099794F1809105
:100E4000310181112EC0109331012BC02B3031059F
:100E50000CF4E4C410923301109232014F5F5F4FE3
:100E600050933B0140933A0180913A0190913B01AC
:100E70000397FCF0209134013091350180913601C7
:100E800090913701820F931F2091380130913901E1
:100E9000820F931F63E070E00E94F80E672B09F445
:100EA000ABC410923B0110923A01109233011092A0
:100EB000320180913101813029F40E94680522E0DD
:100EC0002093310181EF91E00E941A01892B09F4EE
:100ED0004EC181EF91E00E94F8008B3999F444E60D
:100EE00050E06AE570E084E690E00E941F0564E649
:100EF00070E080E090E00E946D0344E650E06AE517
:100F000070E036C08A3919F40E94680530C1893909
:100F1000D9F44CE251E068E572E084E690E00E948A
:100F20001F0564E670E080E090E00E946D0340E4FD
:100F300051E068E572E086E990E00E941F0564E6F2
:100F400070E080E090E041C08839A9F444E650E0C8
:100F50006AE570E084E690E00E941F0564E670E0B8
:100F600080E090E00E946D0340E550E060E570E0B5
:100F700084E690E0E2CF873959F544E650E06AE52F
:100F800070E084E690E00E941F056CE370E080E072
:100F900090E00E946D0344E650E06AE570E084E66C
:100FA00090E00E941F056CE370E080E090E00E94FA
:100FB0006D0344E650E06AE570E088E592E00E9447
:100FC0001F0562E370E080E090E00E946D03CFC0F7
:100FD000863909F09BC08EE00E945603BC01990F30
:100FE000880B990B0E94950D20E030E040EA50E418
:100FF0000E948B0E20E030EC4FE754E40E94EB0C93
:1010000020E030E040E450E40E948B0E4B015C0194
:10101000809140019091410101968D3231E093071A
:101020002CF4909341018093400114C0109241012F
:101030001092400140920001509201016092020121
:101040007092030110923C0110923D0110923E01FA
:1010500010923F01A501940160910001709101017E
:1010600080910201909103010E94860E181644F4AB
:101070008092000190920101A0920201B0920301BE
:10108000A501940160913C0170913D0180913E0168
:1010900090913F010E94E60C87FF08C080923C01BE
:1010A00090923D01A0923E01B0923F0120913C01FF
:1010B00030913D0140913E0150913F01609100010E
:1010C0007091010180910201909103010E94630CD3
:1010D00020E030E040E05FE30E948B0E20E030E053
:1010E00040E350E40E94620C20E030E048EC52E41F
:1010F0000E948B0E28E431EE4AEB5FE30E94EB0C7A
:101100000E94CF0C0E945D0DCB012FC0853971F478
:1011100010932C010E94680561E080E090E00E943D
:10112000540C10932C0181E090E01FC08439B1F47D
:1011300010932C010E94680562E370E080E090E06B
:101140000E946D030E94680560E080E090E00E94CC
:10115000540C10922C0180E090E007C0833939F4E0
:1011600080E090E00E944C0C90E00E9470058FB7E8
:10117000F89480902D0190902E01A0902F01B090B6
:1011800030018FBF8091580190915901A0915A016F
:10119000B0915B01A5019401281B390B4A0B5B0B35
:1011A000DA01C90180363AEE9307A105B10590F046
:1011B0008831964FA105B10518F4109304010AC0B7
:1011C000109204018092580190925901A0925A0104
:1011D000B0925B01609104018CE00E94EA0284E01D
:1011E0000E94C102382E85E00E94C102C82E86E00E
:1011F0000E94C102D82E87E00E94C102082F82E01F
:101200000E94C102582F332011F080E001C080E11C
:10121000C11002C0846001C08B7FD11001C0806208
:10122000011102C0886001C0877F511102C0826035
:1012300001C08D7F8E8388E05C830E94C102482FAD
:1012400089E04B830E94C102382F8AE03A830E94D2
:10125000C102282F8BE029830E94C102282E83E03F
:101260000E94C1024B8129813A815C81442311F0A3
:1012700090E001C090E8311102C0906201C09F7DF2
:10128000211102C0916001C09E7F211002C09064B4
:1012900001C09F7B811102C0906101C09F7E9D8330
:1012A000332091F0CC2081F0DD2071F0002361F03B
:1012B000552351F0442341F0332331F0222321F010
:1012C000222011F08111A6C01092570110925601F0
:1012D000109255011092540184E00E94C102892BA2
:1012E000A1F085E00E94C102892B79F086E00E947E
:1012F000C102892B51F087E00E94C102892B29F09D
:1013000082E00E94C102892BB9F48091560190912C
:101310005701019690935701809356018D3891059E
:101320000CF43DC2109257011092560181E090E0FA
:10133000909355018093540188E00E94C102892B4B
:1013400009F438C289E00E94C102892B09F432C233
:101350008AE00E94C102892B09F42CC28BE00E9412
:10136000C102892B09F426C283E00E94C102892BA5
:1013700009F420C28091540190915501892BC1F04C
:101380008FEF90E00E9470058FEF90E00E94700553
:1013900086EA90E00E94700583E090E00E9470056C
:1013A00080E090E00E9470055D815130F9F417C033
:1013B0008FEF90E00E9470058FEF90E00E94700523
:1013C00086EA90E00E94700583E090E00E9470053C
:1013D00080E090E00E9470052D81213039F46E810B
:1013E00081EF91E00E94580261E006C06D8181EFBB
:1013F00091E00E9458026E8181EF91E00E945802B4
:101400008092580190925901A0925A01B0925B01CA
:101410001093040180E290E00E9475059091CF0145
:101420008091D001981709F450C08EE892E00E9494
:10143000C0018095982F9170482F50E09A01359502
:101440002795E22FE1709A01F3E035952795FA95FB
:10145000E1F72170BA01A4E075956795AA95E1F7C7
:10146000F62FF170BA01B5E075956795BA95E1F779
:10147000A62FA170BA0106E0759567950A95E1F768
:10148000362F3170881F8827881F559547955595A9
:10149000479540FD2260E13009F42460F13009F401
:1014A0002860A13009F42061313009F420629130C4
:1014B00009F42064813009F420682093530180915D
:1014C0005201281710F02093520181E290E00E940F
:1014D00075059091CF018091D001981751F18EE858
:1014E00092E00E94C0018095582F517090E09C01BD
:1014F00035952795422F41709C0135952795359557
:101500002795217073E0959587957A95E1F780FD91
:101510002260513009F42860413011F4246001C088
:101520002B7F2093510180915001281710F02093B8
:10153000500182E290E00E9475059091CF01809168
:10154000D001981769F08EE892E00E94C001809562
:1015500080934F0190914E01891710F080934E01B6
:1015600083E290E00E9475059091CF018091D001B7
:10157000981769F08EE892E00E94C00180958093F0
:101580004D0190914C01891710F080934C0184E239
:1015900090E00E9475059091CF018091D00198173D
:1015A00069F08EE892E00E94C001809580934B0123
:1015B00090914A01891710F080934A0185E290E0EA
:1015C0000E9475059091CF018091D001981769F024
:1015D0008EE892E00E94C00180958093490190912D
:1015E0004801891710F08093480180914C018830A0
:1015F00038F08695869586958093470110924C0128
:1016000020914C0180914E0130E2239F6001112412
:10161000C80ED11CD0924601C092450190914F0155
:1016200080914D01911108C0811106C0C114D104EF
:1016300029F01093440102C0811105C08091470137
:1016400081111093440180914901811109C0909149
:101650004801913029F440E240934A011092480138
:1016600090914B01911145C090914A01992309F441
:1016700040C0109344018823F1F1109244018FEF90
:1016800090E00E9470058FEF90E00E94700584EA60
:1016900090E00E94700583E090E00E947005C60112
:1016A0000E94700580914A012091470154E0859F76
:1016B000C0011124820F911D0E9470058091480184
:1016C000869590E00E94700510924E0110924C0198
:1016D0001092470110924A011092480180925801DD
:1016E00090925901A0925A01B0925B0110930401AB
:1016F0000CC0811106C080914801823010F0109317
:101700004401809144018111B8CF00915001609152
:101710005201862F90E0800F911D9093430180939A
:10172000420120915101211137C020915301211113
:1017300033C0892B89F18FEF90E069830E94700597
:101740008FEF90E00E94700586EA90E00E9470059D
:1017500083E090E00E947005698181EF91E00E9432
:101760005802602F81EF91E00E94580280E090E0E3
:101770000E94700510925001109252011092430184
:10178000109242018092580190925901A0925A0100
:10179000B0925B01109304010E94260103CBF092EA
:1017A0005501E092540165E070E080E090E00E9415
:1017B0006D0392CD809156019091570101969093BF
:1017C0005701809356018D3891055CF010925701B6
:1017D0001092560181E090E090935501809354015E
:1017E000C9CDF0925501E092540165E070E080E0CF
:1017F00090E00E946D03A0CD80913101823009F00C
:1018000050CB109231010E94680564E670E080E0E0
:1018100090E00E946D030E94680543CB3093330132
:101820002093320121CBE1EFF1E01382128288EEA6
:1018300093E0A0E0B0E084839583A683B78329E09A
:1018400031E03183208325EC30E03587248724EC98
:1018500030E03787268720EC30E0318B208B21EC7D
:1018600030E0338B228B22EC30E0358B248B26EC5E
:1018700030E0378B268B118E128E138E148EEEE88D
:10188000F2E01382128284839583A683B7838BE16F
:1018900091E0918380830895F999FECF92BD81BD37
:1018A000F89A992780B50895262FF999FECF1FBA87
:1018B00092BD81BD20BD0FB6F894FA9AF99A0FBE79
:1018C000019608955058BB27AA270E947A0C0C94C1
:1018D000340E0E94260E38F00E942D0E20F039F4AE
:1018E0009F3F19F426F40C94230E0EF4E095E7FBC9
:1018F0000C94F40DE92F0E94450E58F3BA176207B5
:1019000073078407950720F079F4A6F50C947F0EF1
:101910000EF4E0950B2EBA2FA02D0B01B90190010A
:101920000C01CA01A0011124FF27591B99F0593F4E
:1019300050F4503E68F11A16F040A22F232F342F96
:101940004427585FF3CF469537952795A795F040E4
:101950005395C9F77EF41F16BA0B620B730B840BF9
:10196000BAF09150A1F0FF0FBB1F661F771F881FB1
:10197000C2F70EC0BA0F621F731F841F48F4879509
:1019800077956795B795F7959E3F08F0B0CF9395FB
:10199000880F08F09927EE0F9795879508950E9474
:1019A000670E90F09F3748F4911116F40C94800E56
:1019B00060E070E080E89FE3089526F01B16611D4B
:1019C000711D811D0C94FA0D0C94150E0E94D00D02
:1019D00008F481E008950E94FF0C0C94340E0E94DC
:1019E0002D0E58F00E94260E40F029F45F3F29F09A
:1019F0000C94F40D51110C94800E0C94230E0E9443
:101A0000450E68F39923B1F3552391F3951B550BBC
:101A1000BB27AA2762177307840738F09F5F5F4FC1
:101A2000220F331F441FAA1FA9F335D00E2E3AF000
:101A3000E0E832D091505040E695001CCAF72BD018
:101A4000FE2F29D0660F771F881FBB1F2617370769
:101A50004807AB07B0E809F0BB0B802DBF01FF279B
:101A600093585F4F3AF09E3F510578F00C94F40D77
:101A70000C94800E5F3FE4F3983ED4F386957795FF
:101A80006795B795F7959F5FC9F7880F911D969554
:101A9000879597F90895E1E0660F771F881FBB1FB0
:101AA000621773078407BA0720F0621B730B840B5D
:101AB000BA0BEE1F88F7E09508950E94640D6894B4
:101AC000B1110C94800E08950E944D0E88F09F571E
:101AD00098F0B92F9927B751B0F0E1F0660F771F52
:101AE000881F991F1AF0BA95C9F714C0B13091F048
:101AF0000E947F0EB1E008950C947F0E672F782F1F
:101B00008827B85F39F0B93FCCF38695779567950C
:101B1000B395D9F73EF490958095709561957F4F78
:101B20008F4F9F4F0895E89409C097FB3EF490951E
:101B30008095709561957F4F8F4F9F4F9923A9F0A6
:101B4000F92F96E9BB279395F69587957795679535
:101B5000B795F111F8CFFAF4BB0F11F460FF1BC079
:101B60006F5F7F4F8F4F9F4F16C0882311F096E90C
:101B700011C0772321F09EE8872F762F05C06623BA
:101B800071F096E8862F70E060E02AF09A95660F73
:101B9000771F881FDAF7880F9695879597F908952C
:101BA000990F0008550FAA0BE0E8FEEF161617066E
:101BB000E807F907C0F012161306E407F50798F0D6
:101BC000621B730B840B950B39F40A2661F0232BEF
:101BD000242B252B21F408950A2609F4A140A6956B
:101BE0008FEF811D811D089597F99F6780E870E050
:101BF00060E00895882371F4772321F09850872BB3
:101C0000762F07C0662311F499270DC09051862BBB
:101C100070E060E02AF09A95660F771F881FDAF768
:101C2000880F9695879597F908959F3F31F09150C9
:101C300020F4879577956795B795880F911D9695B0
:101C4000879597F908959FEF80EC089500240A94F2
:101C50001616170618060906089500240A94121687
:101C60001306140605060895092E0394000C11F4BA
:101C7000882352F0BB0F40F4BF2B11F460FF04C067
:101C80006F5F7F4F8F4F9F4F089557FD9058440FC0
:101C9000551F59F05F3F71F04795880F97FB991FCB
:101CA00061F09F3F79F08795089512161306140688
:101CB000551FF2CF4695F1DF08C016161706180615
:101CC000991FF1CF869571056105089408950E94CA
:101CD0004D0EA0F0BEE7B91788F4BB279F3860F41B
:101CE0001616B11D672F782F8827985FF7CF869536
:101CF00077956795B11D93959639C8F30895E89443
:101D0000BB2766277727CB0197F908950E94D00D4E
:101D100008F48FEF08950E949E0E0C94340E0E94DA
:101D2000260E38F00E942D0E20F0952311F00C9411
:101D3000F40D0C94230E11240C94800E0E94450E79
:101D400070F3959FC1F3950F50E0551F629FF0010E
:101D5000729FBB27F00DB11D639FAA27F00DB11D27
:101D6000AA1F649F6627B00DA11D661F829F2227B0
:101D7000B00DA11D621F739FB00DA11D621F839F37
:101D8000A00D611D221F749F3327A00D611D231F0D
:101D9000849F600D211D822F762F6A2F11249F575B
:101DA00050409AF0F1F088234AF0EE0FFF1FBB1F5E
:101DB000661F771F881F91505040A9F79E3F51051D
:101DC00080F00C94F40D0C94800E5F3FE4F3983E89
:101DD000D4F3869577956795B795F795E7959F5FC7
:101DE000C1F7FE2B880F911D9695879597F9089559
:101DF00097FB072E16F4009407D077FD09D00E94B8
:101E00000C0F07FC05D03EF4909581959F4F0895E7
:101E1000709561957F4F0895AA1BBB1B51E107C0C8
:101E2000AA1FBB1FA617B70710F0A61BB70B881F6A
:101E3000991F5A95A9F780959095BC01CD010895F9
:101E4000EE0FFF1F0590F491E02D099481E090E0E2
:0A1E5000F8940C942B0FF894FFCFC8
:101E5A0052B88640010000000058028C00E9009F39
:101E6A00021A01F8000C0100000000F001DC010276
:0A1E7A0002B001D401C001B1010063
:107800000C94343C0C94513C0C94513C0C94513CE1
:107810000C94513C0C94513C0C94513C0C94513CB4
:107820000C94513C0C94513C0C94513C0C94513CA4
:107830000C94513C0C94513C0C94513C0C94513C94
:107840000C94513C0C94513C0C94513C0C94513C84
:107850000C94513C0C94513C0C94513C0C94513C74
:107860000C94513C0C94513C11241FBECFEFD8E036
:10787000DEBFCDBF11E0A0E0B1E0ECE9FFE702C060
:1078800005900D92A230B107D9F712E0A2E0B1E065
:1078900001C01D92AD30B107E1F70E942D3D0C945F
:1078A000CC3F0C94003C982F959595959595959582
:1078B000905D8F708A307CF0282F295A8091C0000B
:1078C00085FFFCCF9093C6008091C00085FFFCCF60
:1078D0002093C6000895282F205DF0CF982F809127
:1078E000C00085FFFCCF9093C6000895EF92FF92F1
:1078F0000F931F93EE24FF2487018091C00087FD22
:1079000017C00894E11CF11C011D111D81E4E8164B
:1079100082E4F8068FE0080780E0180770F3E09132
:107920000401F091050109958091C00087FFE9CF1E
:107930008091C6001F910F91FF90EF9008950E94D3
:10794000763C982F8091C00085FFFCCF9093C600B5
:1079500091362CF490330CF09053892F089597555D
:10796000892F08951F930E949F3C182F0E949F3CCF
:107970001295107F810F1F9108951F93182F882350
:1079800021F00E94763C1150E1F71F9108951F935A
:10799000182F0E94763C803249F0809103018F5F5E
:1079A000809303018530C1F01F9108958091C0003C
:1079B00085FFFCCF84E18093C6008091C00085FFE5
:1079C000FCCF1093C6008091C00085FFFCCF80E102
:1079D0008093C6001F910895E0910401F091050184
:1079E00009951F9108950E94763C803241F0809164
:1079F00003018F5F80930301853081F008958091AA
:107A0000C00085FFFCCF84E18093C6008091C00058
:107A100085FFFCCF80E18093C6000895E0910401CA
:107A2000F09105010995089540E951E08823A1F0FE
:107A30002D9A28EE33E0FA013197F1F721503040CA
:107A4000D1F72D9828EE33E0FA013197F1F7215064
:107A50003040D1F7815061F708953F924F925F9285
:107A60006F927F928F929F92AF92BF92CF92DF924E
:107A7000EF92FF920F931F93CF93DF93000080E16B
:107A80008093C4001092C50088E18093C10086E015
:107A90008093C2005098589A259A81E00E94143D24
:107AA00024E1F22E9EE1E92E85E9D82E0FE0C02ECA
:107AB00010E1B12EAA24A394B1E49B2EA6E58A2E50
:107AC000F2E57F2EE0E26E2E79E4572E63E5462E36
:107AD00050E5352E0E94763C8033B1F18133B9F107
:107AE000803409F46FC0813409F476C0823409F41B
:107AF00085C0853409F488C0803531F1823521F1A3
:107B0000813511F1853509F485C0863509F48DC0BC
:107B1000843609F496C0843709F403C1853709F423
:107B200072C1863709F466C0809103018F5F80932C
:107B30000301853079F6E0910401F0910501099582
:107B40000E94763C803351F60E94F33CC3CF0E94E2
:107B5000763C803249F78091C00085FFFCCFF092DF
:107B6000C6008091C00085FFFCCF9092C600809136
:107B7000C00085FFFCCF8092C6008091C00085FFC9
:107B8000FCCF7092C6008091C00085FFFCCF609250
:107B9000C6008091C00085FFFCCF5092C600809146
:107BA000C00085FFFCCF4092C6008091C00085FFD9
:107BB000FCCF3092C6008091C00085FFFCCFB09210
:107BC000C60088CF0E94763C863808F4BDCF0E945C
:107BD000763C0E94F33C7ECF0E94763C803809F4CC
:107BE0009CC0813809F40BC1823809F43CC1883942
:107BF00009F48FC080E00E94C73C6CCF84E10E94F2
:107C0000BD3C0E94F33C66CF85E00E94BD3C0E94D3
:107C1000F33C60CF0E94763C809306010E94763C44
:107C2000809307010E94F33C55CF0E94763C80333D
:107C300009F41DC183E00E94BD3C80E00E94C73C66
:107C400049CF0E94763C809309020E94763C809343
:107C5000080280910C028E7F80930C020E94763C79
:107C6000853409F415C18091080290910902892B8D
:107C700089F000E010E00E94763CF801E85FFE4FDA
:107C800080830F5F1F4F80910802909109020817AF
:107C9000190788F30E94763C803209F045CF809125
:107CA0000C0280FF01C16091060170910701660F0F
:107CB000771F7093070160930601A0910802B091AD
:107CC00009021097C9F0E8E0F1E09B01AD014E0F09
:107CD0005F1FF999FECF32BD21BD819180BDFA9A17
:107CE000F99A2F5F3F4FE417F50799F76A0F7B1F4B
:107CF00070930701609306018091C00085FFFCCF5F
:107D0000F092C6008091C00085FFFCCFB092C60003
:107D1000E1CE83E00E94C73CDDCE82E00E94C73CFA
:107D2000D9CE0E94763C809309020E94763C8093D3
:107D300008028091060190910701880F991F909386
:107D40000701809306010E94763C853409F4A6C0A1
:107D500080910C028E7F80930C020E94763C8032D0
:107D600009F0B8CE8091C00085FFFCCFF092C6002C
:107D7000609108027091090261157105B9F140E046
:107D800050E080910C02A82FA170B82FB27011C0E2
:107D9000BB2309F45CC0E0910601F0910701319624
:107DA000F0930701E09306014F5F5F4F46175707B7
:107DB000E8F4AA2369F3F999FECF209106013091E6
:107DC000070132BD21BDF89A90B58091C00085FFB2
:107DD000FCCF9093C6002F5F3F4F30930701209355
:107DE00006014F5F5F4F4617570718F38091C00099
:107DF00085FDE5CE8091C00085FFF8CFE0CE81E023
:107E00000E94C73C67CE0E94763C803209F08CCE3F
:107E10008091C00085FFFCCFF092C6008091C00029
:107E200085FFFCCFE092C6008091C00085FFFCCFAB
:107E3000D092C6008091C00085FFFCCFC092C600E2
:107E40008091C00085FFFCCFB092C60043CEE09188
:107E50000601F091070194918091C00085FFFCCF4D
:107E60009093C6009CCF80E10E94C73C33CE0E9415
:107E7000763C0E94763C182F0E94763C112309F430
:107E800083C0113009F484C08FE00E94C73C22CE29
:107E900080910C02816080930C02E5CE80910C02EF
:107EA000816080930C0259CF809107018823880F4D
:107EB000880B8A2180930B02809106019091070123
:107EC000880F991F90930701809306018091080203
:107ED00080FF09C080910802909109020196909359
:107EE000090280930802F894F999FECF1127E091D6
:107EF0000601F0910701C8E0D1E08091080290915D
:107F00000902103091F40091570001700130D9F34B
:107F100003E000935700E89500915700017001308D
:107F2000D9F301E100935700E89509901990009169
:107F3000570001700130D9F301E000935700E89534
:107F40001395103498F011270091570001700130FB
:107F5000D9F305E000935700E895009157000170B0
:107F60000130D9F301E100935700E895329602976A
:107F700009F0C7CF103011F00296E5CF112480919F
:107F8000C00085FFB9CEBCCE8EE10E94C73CA2CD19
:0C7F900085E90E94C73C9ECDF894FFCF0D
:027F9C00800063
:040000030000780081
:00000001FF
